{
  "contractName": "SingleConsumerSample",
  "abi": [
    {
      "inputs": [
        {
          "internalType": "address",
          "name": "_oracle",
          "type": "address"
        },
        {
          "internalType": "address",
          "name": "_linkToken",
          "type": "address"
        },
        {
          "internalType": "uint256",
          "name": "_payment",
          "type": "uint256"
        }
      ],
      "stateMutability": "nonpayable",
      "type": "constructor"
    },
    {
      "anonymous": false,
      "inputs": [
        {
          "indexed": true,
          "internalType": "bytes32",
          "name": "id",
          "type": "bytes32"
        }
      ],
      "name": "ChainlinkCancelled",
      "type": "event"
    },
    {
      "anonymous": false,
      "inputs": [
        {
          "indexed": true,
          "internalType": "bytes32",
          "name": "id",
          "type": "bytes32"
        }
      ],
      "name": "ChainlinkFulfilled",
      "type": "event"
    },
    {
      "anonymous": false,
      "inputs": [
        {
          "indexed": true,
          "internalType": "bytes32",
          "name": "id",
          "type": "bytes32"
        }
      ],
      "name": "ChainlinkRequested",
      "type": "event"
    },
    {
      "anonymous": false,
      "inputs": [
        {
          "indexed": true,
          "internalType": "address",
          "name": "previousOwner",
          "type": "address"
        },
        {
          "indexed": true,
          "internalType": "address",
          "name": "newOwner",
          "type": "address"
        }
      ],
      "name": "OwnershipTransferred",
      "type": "event"
    },
    {
      "inputs": [
        {
          "internalType": "uint256",
          "name": "",
          "type": "uint256"
        }
      ],
      "name": "NFTinfo",
      "outputs": [
        {
          "internalType": "uint224",
          "name": "time",
          "type": "uint224"
        },
        {
          "internalType": "uint32",
          "name": "price",
          "type": "uint32"
        }
      ],
      "stateMutability": "view",
      "type": "function",
      "constant": true
    },
    {
      "inputs": [
        {
          "internalType": "bytes32",
          "name": "",
          "type": "bytes32"
        }
      ],
      "name": "idByRequest",
      "outputs": [
        {
          "internalType": "uint256",
          "name": "",
          "type": "uint256"
        }
      ],
      "stateMutability": "view",
      "type": "function",
      "constant": true
    },
    {
      "inputs": [],
      "name": "jobId",
      "outputs": [
        {
          "internalType": "bytes32",
          "name": "",
          "type": "bytes32"
        }
      ],
      "stateMutability": "view",
      "type": "function",
      "constant": true
    },
    {
      "inputs": [],
      "name": "owner",
      "outputs": [
        {
          "internalType": "address",
          "name": "",
          "type": "address"
        }
      ],
      "stateMutability": "view",
      "type": "function",
      "constant": true
    },
    {
      "inputs": [],
      "name": "payment",
      "outputs": [
        {
          "internalType": "uint256",
          "name": "",
          "type": "uint256"
        }
      ],
      "stateMutability": "view",
      "type": "function",
      "constant": true
    },
    {
      "inputs": [],
      "name": "renounceOwnership",
      "outputs": [],
      "stateMutability": "nonpayable",
      "type": "function"
    },
    {
      "inputs": [
        {
          "internalType": "address",
          "name": "newOwner",
          "type": "address"
        }
      ],
      "name": "transferOwnership",
      "outputs": [],
      "stateMutability": "nonpayable",
      "type": "function"
    },
    {
      "inputs": [
        {
          "internalType": "uint256",
          "name": "id",
          "type": "uint256"
        }
      ],
      "name": "requestNFTvalue",
      "outputs": [],
      "stateMutability": "nonpayable",
      "type": "function"
    },
    {
      "inputs": [
        {
          "internalType": "bytes32",
          "name": "_requestID",
          "type": "bytes32"
        },
        {
          "internalType": "uint256",
          "name": "_price",
          "type": "uint256"
        }
      ],
      "name": "fulfillRequest",
      "outputs": [],
      "stateMutability": "nonpayable",
      "type": "function"
    },
    {
      "inputs": [
        {
          "internalType": "address",
          "name": "_operator",
          "type": "address"
        },
        {
          "internalType": "bytes32",
          "name": "_jobId",
          "type": "bytes32"
        },
        {
          "internalType": "uint256",
          "name": "_payment",
          "type": "uint256"
        }
      ],
      "name": "configureOracle",
      "outputs": [],
      "stateMutability": "nonpayable",
      "type": "function"
    }
  ],
  "bytecode": "0x608060405260016004557f62623435653633346334373034643032613930373036363235616334396432646007553480156200003a57600080fd5b506040516200114a3803806200114a8339810160408190526200005d916200014c565b620000716200006b62000095565b62000099565b60088190556200008182620000eb565b6200008c836200010d565b5050506200018c565b3390565b600680546001600160a01b038381166001600160a01b0319831681179093556040519116919082907f8be0079c531659141344cd1fd0a4f28419497f9722a3daafe3b4186f6b6457e090600090a35050565b600280546001600160a01b0319166001600160a01b0392909216919091179055565b600380546001600160a01b0319166001600160a01b0392909216919091179055565b80516001600160a01b03811681146200014757600080fd5b919050565b60008060006060848603121562000161578283fd5b6200016c846200012f565b92506200017c602085016200012f565b9150604084015190509250925092565b610fae806200019c6000396000f3fe608060405234801561001057600080fd5b506004361061009e5760003560e01c8063b4f8021b11610066578063b4f8021b14610106578063c0e50d6814610119578063c2939d971461013a578063c5e56d6c14610142578063f2fde38b146101555761009e565b80630a2b811d146100a357806342f6487a146100cc578063715018a6146100d457806374efdf2b146100de5780638da5cb5b146100f1575b600080fd5b6100b66100b1366004610b60565b610168565b6040516100c39190610cb2565b60405180910390f35b6100b661017a565b6100dc610180565b005b6100dc6100ec366004610b0e565b6101d4565b6100f9610228565b6040516100c39190610c06565b6100dc610114366004610b78565b610237565b61012c610127366004610b60565b610313565b6040516100c3929190610dc1565b6100b661033d565b6100dc610150366004610b60565b610343565b6100dc610163366004610af4565b6103aa565b600a6020526000908152604090205481565b60085481565b61018861041b565b6001600160a01b0316610199610228565b6001600160a01b0316146101c85760405162461bcd60e51b81526004016101bf90610d44565b60405180910390fd5b6101d2600061041f565b565b6101dc61041b565b6001600160a01b03166101ed610228565b6001600160a01b0316146102135760405162461bcd60e51b81526004016101bf90610d44565b61021c83610471565b60079190915560085550565b6006546001600160a01b031690565b60008281526005602052604090205482906001600160a01b0316331461026f5760405162461bcd60e51b81526004016101bf90610d79565b60008181526005602052604080822080546001600160a01b03191690555182917f7cc135e0cebb02c3480ae5d74d377283180a2601f8f644edf7987b009316c63a91a2506000918252600a60209081526040808420805485526009808452828620805463ffffffff909616600160e01b026001600160e01b03968716179055905485529091529091208054429092166001600160e01b031992909216919091179055565b6009602052600090815260409020546001600160e01b03811690600160e01b900463ffffffff1682565b60075481565b60006103596007543063b4f8021b60e01b610493565b6040805180820190915260078152661a5b9c1d5d125960ca1b6020820152909150610386908290846104ba565b6000610394826008546104dd565b6000908152600a60205260409020929092555050565b6103b261041b565b6001600160a01b03166103c3610228565b6001600160a01b0316146103e95760405162461bcd60e51b81526004016101bf90610d44565b6001600160a01b03811661040f5760405162461bcd60e51b81526004016101bf90610cbb565b6104188161041f565b50565b3390565b600680546001600160a01b038381166001600160a01b0319831681179093556040519116919082907f8be0079c531659141344cd1fd0a4f28419497f9722a3daafe3b4186f6b6457e090600090a35050565b600380546001600160a01b0319166001600160a01b0392909216919091179055565b61049b610a89565b6104a3610a89565b6104af81868686610500565b9150505b9392505050565b60808301516104c9908361053d565b60808301516104d89082610554565b505050565b6003546000906104f7906001600160a01b03168484610564565b90505b92915050565b610508610a89565b6105188560800151610100610583565b50509183526001600160a01b031660208301526001600160e01b031916604082015290565b61054a82600383516105db565b6104d882826106b5565b610560826000836105db565b5050565b600061057b84848460016320214ca360e11b6106cf565b949350505050565b61058b610abe565b610596602083610f42565b156105be576105a6602083610f42565b6105b1906020610f2b565b6105bb9083610de0565b91505b506020828101829052604080518085526000815290920101905290565b601781116105fc576105f68360e0600585901b16831761088a565b506104d8565b60ff811161062657610619836018611fe0600586901b161761088a565b506105f6838260016108a2565b61ffff811161065157610644836019611fe0600586901b161761088a565b506105f6838260026108a2565b63ffffffff811161067e5761067183601a611fe0600586901b161761088a565b506105f6838260046108a2565b67ffffffffffffffff81116104d8576106a283601b611fe0600586901b161761088a565b506106af838260086108a2565b50505050565b6106bd610abe565b6104f7838460000151518485516108bb565b6000306004546040516020016106e6929190610be4565b60408051808303601f19018152918152815160209283012060045460608901526000818152600590935281832080546001600160a01b0319166001600160a01b038b16179055905190925082917fb5e6e01e79f91267dc17b4e6314d5d4d03593d2ceee0fbb452b750bd70ea5af991a2600082600080886000015189602001518a604001518b606001518a8d6080015160000151604051602401610791989796959493929190610c1a565b60408051601f198184030181529181526020820180516001600160e01b03166001600160e01b0319909416939093179092526002549151630200057560e51b81529092506001600160a01b0390911690634000aea0906107f9908a9089908690600401610c82565b602060405180830381600087803b15801561081357600080fd5b505af1158015610827573d6000803e3d6000fd5b505050506040513d601f19601f8201168201806040525081019061084b9190610b40565b6108675760405162461bcd60e51b81526004016101bf90610d01565b60016004600082825461087a9190610de0565b9091555091979650505050505050565b610892610abe565b6104f78384600001515184610998565b6108aa610abe565b61057b8485600001515185856109e7565b6108c3610abe565b82518211156108d157600080fd5b60208501516108e08386610de0565b11156109135761091385610903876020015187866108fe9190610de0565b610a5b565b61090e906002610f0c565b610a72565b6000808651805187602083010193508088870111156109325787860182525b505050602084015b602084106109725780518252610951602083610de0565b915061095e602082610de0565b905061096b602085610f2b565b935061093a565b51815160001960208690036101000a019081169019919091161790525083949350505050565b6109a0610abe565b836020015183106109c0576109c0848560200151600261090e9190610f0c565b8351805160208583010184815350808514156109dd576001810182525b5093949350505050565b6109ef610abe565b60208501516109fe8584610de0565b1115610a1257610a12856109038685610de0565b60006001610a2284610100610e3e565b610a2c9190610f2b565b9050855183868201018583198251161781525080518487011115610a505783860181525b509495945050505050565b600081831115610a6c5750816104fa565b50919050565b8151610a7e8383610583565b506106af83826106b5565b6040805160a081018252600080825260208201819052918101829052606081019190915260808101610ab9610abe565b905290565b604051806040016040528060608152602001600081525090565b80356001600160a01b0381168114610aef57600080fd5b919050565b600060208284031215610b05578081fd5b6104f782610ad8565b600080600060608486031215610b22578182fd5b610b2b84610ad8565b95602085013595506040909401359392505050565b600060208284031215610b51578081fd5b815180151581146104b3578182fd5b600060208284031215610b71578081fd5b5035919050565b60008060408385031215610b8a578182fd5b50508035926020909101359150565b60008151808452815b81811015610bbe57602081850181015186830182015201610ba2565b81811115610bcf5782602083870101525b50601f01601f19169290920160200192915050565b60609290921b6bffffffffffffffffffffffff19168252601482015260340190565b6001600160a01b0391909116815260200190565b6001600160a01b0389811682526020820189905260408201889052861660608201526001600160e01b03198516608082015260a0810184905260c0810183905261010060e08201819052600090610c7383820185610b99565b9b9a5050505050505050505050565b600060018060a01b038516825283602083015260606040830152610ca96060830184610b99565b95945050505050565b90815260200190565b60208082526026908201527f4f776e61626c653a206e6577206f776e657220697320746865207a65726f206160408201526564647265737360d01b606082015260800190565b60208082526023908201527f756e61626c6520746f207472616e73666572416e6443616c6c20746f206f7261604082015262636c6560e81b606082015260800190565b6020808252818101527f4f776e61626c653a2063616c6c6572206973206e6f7420746865206f776e6572604082015260600190565b60208082526028908201527f536f75726365206d75737420626520746865206f7261636c65206f6620746865604082015267081c995c5d595cdd60c21b606082015260800190565b6001600160e01b0392909216825263ffffffff16602082015260400190565b60008219821115610df357610df3610f62565b500190565b80825b6001808611610e0a5750610e35565b818704821115610e1c57610e1c610f62565b80861615610e2957918102915b9490941c938002610dfb565b94509492505050565b60006104f76000198484600082610e57575060016104b3565b81610e64575060006104b3565b8160018114610e7a5760028114610e8457610eb1565b60019150506104b3565b60ff841115610e9557610e95610f62565b6001841b915084821115610eab57610eab610f62565b506104b3565b5060208310610133831016604e8410600b8410161715610ee4575081810a83811115610edf57610edf610f62565b6104b3565b610ef18484846001610df8565b808604821115610f0357610f03610f62565b02949350505050565b6000816000190483118215151615610f2657610f26610f62565b500290565b600082821015610f3d57610f3d610f62565b500390565b600082610f5d57634e487b7160e01b81526012600452602481fd5b500690565b634e487b7160e01b600052601160045260246000fdfea2646970667358221220c7680242ef393807b9f8cf7370b4710c308406f7d776b256c5b22e89c34939a164736f6c63430008000033",
  "immutableReferences": {},
  "source": "// SPDX-License-Identifier: MIT\r\npragma solidity ^0.8.0;\r\n\r\n// import the newest version of the Chainlink Client that enables us \r\n// to interact with Oracle Contracts in a seemingless way\r\nimport \"@chainlink/contracts/src/v0.8/ChainlinkClient.sol\";\r\n\r\n// import the Ownable contract from openzeppelin that allows us to restrict access to certain functions\r\nimport \"@openzeppelin/contracts/access/Ownable.sol\";\r\n\r\n\r\n/// @title only consumes a single price at a time\r\n/// @notice this is just an example of how to consume the oracle data with no full use case built in\r\n/// @notice please get creative and think of stuff to build on top ;)\r\ncontract SingleConsumerSample is ChainlinkClient, Ownable {\r\n    using Chainlink for Chainlink.Request;\r\n\r\n    // jobId to call on the oracle\r\n    bytes32 public jobId = \"bb45e634c4704d02a90706625ac49d2d\";\r\n    // amount of Link the oracle receives as payment (18 decimals)\r\n    uint256 public payment;\r\n\r\n    /// @notice stores latest price and time of that valuation\r\n    /// @dev use a uint224 and uint32 to only use one storage slot (256)\r\n    struct NFTInfo {\r\n        uint224 time;\r\n        uint32 price;\r\n    }\r\n\r\n    /// @dev maps the ID of the NFT to the Info struct above\r\n    mapping(uint256 => NFTInfo) public NFTinfo;\r\n\r\n    /// @dev maps the request ID that is produced when calling the oracle to the NFT ID that got requested\r\n    mapping(bytes32 => uint256) public idByRequest;\r\n\r\n    /// @dev gets called only once when deploying\r\n    /// @dev sets the oracle parameters via the methods inherited by ChainlinkClient.sol\r\n    /// @notice payment can be 0 here for easier testing\r\n    constructor(address _oracle, address _linkToken, uint256 _payment) {\r\n        payment = _payment;\r\n        setChainlinkToken(_linkToken);\r\n        setChainlinkOracle(_oracle);\r\n    }\r\n\r\n    /**\r\n    * @param id specifies the NFT ID that gets requested from the oracle\r\n    * @notice requests a single valuation for a Sandbox Land ID from the Oracle\r\n    * @notice it doesnt directly return the valuation\r\n    * @dev there will be another job for requesting a lot of IDs at once for massive gas savings\r\n    */\r\n    function requestNFTvalue(uint256 id) public {\r\n        Chainlink.Request memory req = buildChainlinkRequest(jobId, address(this), this.fulfillRequest.selector);\r\n        req.addUint(\"inputId\", id);\r\n        bytes32 _requestId = sendChainlinkRequest(req, payment);\r\n        idByRequest[_requestId] = id;\r\n    }\r\n\r\n    /**\r\n    * @param _requestID lets this contract know which request is being fulfilled\r\n    * @param _price returns the price in USD, if _price == 4000 => the land is valuated at 4000 USD\r\n    * @notice if 0 is returned as a price the oracle does not have enough historic data to make a sensible prediction. \r\n    *         Treat that case as a non response\r\n    * @dev this function is called by the oracle shortly after the request was made\r\n    */\r\n    function fulfillRequest(bytes32 _requestID, uint256  _price) external recordChainlinkFulfillment(_requestID) {\r\n        NFTinfo[idByRequest[_requestID]].price = uint32(_price);\r\n        NFTinfo[idByRequest[_requestID]].time = uint224(block.timestamp);\r\n    }\r\n\r\n    /**\r\n    * @notice changes the variables that state which oracle and which job to call as well how much to pay\r\n    * @param _operator the oracle that is called in \"requestNFTvalue\"\r\n    * @param _jobId the specific job that should be run\r\n    * @param _payment the amount of link to pay for the job (18 decimals)\r\n    */\r\n    function configureOracle(address _operator, bytes32 _jobId, uint256 _payment) external onlyOwner {\r\n        setChainlinkOracle(_operator);\r\n        jobId = _jobId;\r\n        payment = _payment;\r\n    }\r\n}   ",
  "sourcePath": "D:\\Dokumente\\GitVScode\\thedac-github\\SampleCode\\contracts\\SingleConsumerSample.sol",
  "compiler": {
    "name": "solc",
    "version": "0.8.0+commit.c7dfd78e.Emscripten.clang"
  },
  "schemaVersion": "3.4.3",
  "updatedAt": "2021-11-18T20:30:04.574Z",
  "networkType": "ethereum",
  "devdoc": {
    "kind": "dev",
    "methods": {
      "configureOracle(address,bytes32,uint256)": {
        "params": {
          "_jobId": "the specific job that should be run",
          "_operator": "the oracle that is called in \"requestNFTvalue\"",
          "_payment": "the amount of link to pay for the job (18 decimals)"
        }
      },
      "constructor": {
        "details": "gets called only once when deployingsets the oracle parameters via the methods inherited by ChainlinkClient.sol"
      },
      "fulfillRequest(bytes32,uint256)": {
        "details": "this function is called by the oracle shortly after the request was made",
        "params": {
          "_price": "returns the price in USD, if _price == 4000 => the land is valuated at 4000 USD",
          "_requestID": "lets this contract know which request is being fulfilled"
        }
      },
      "owner()": {
        "details": "Returns the address of the current owner."
      },
      "renounceOwnership()": {
        "details": "Leaves the contract without owner. It will not be possible to call `onlyOwner` functions anymore. Can only be called by the current owner. NOTE: Renouncing ownership will leave the contract without an owner, thereby removing any functionality that is only available to the owner."
      },
      "requestNFTvalue(uint256)": {
        "details": "there will be another job for requesting a lot of IDs at once for massive gas savings",
        "params": {
          "id": "specifies the NFT ID that gets requested from the oracle"
        }
      },
      "transferOwnership(address)": {
        "details": "Transfers ownership of the contract to a new account (`newOwner`). Can only be called by the current owner."
      }
    },
    "stateVariables": {
      "NFTinfo": {
        "details": "maps the ID of the NFT to the Info struct above"
      },
      "idByRequest": {
        "details": "maps the request ID that is produced when calling the oracle to the NFT ID that got requested"
      }
    },
    "title": "only consumes a single price at a time",
    "version": 1
  },
  "userdoc": {
    "kind": "user",
    "methods": {
      "configureOracle(address,bytes32,uint256)": {
        "notice": "changes the variables that state which oracle and which job to call as well how much to pay"
      },
      "constructor": {
        "notice": "payment can be 0 here for easier testing"
      },
      "fulfillRequest(bytes32,uint256)": {
        "notice": "if 0 is returned as a price the oracle does not have enough historic data to make a sensible prediction.          Treat that case as a non response"
      },
      "requestNFTvalue(uint256)": {
        "notice": "requests a single valuation for a Sandbox Land ID from the Oracleit doesnt directly return the valuation"
      }
    },
    "notice": "this is just an example of how to consume the oracle data with no full use case built inplease get creative and think of stuff to build on top ;)",
    "version": 1
  }
}